{
	"Solidity 강좌 따라하기/ex3_Gas_and_Ether.sol": {
		"Lec3": {
			"abi": [
				{
					"inputs": [],
					"name": "gasss1",
					"outputs": [
						{
							"internalType": "uint256",
							"name": "",
							"type": "uint256"
						}
					],
					"stateMutability": "view",
					"type": "function"
				},
				{
					"inputs": [],
					"name": "gasss2",
					"outputs": [
						{
							"internalType": "uint256",
							"name": "",
							"type": "uint256"
						}
					],
					"stateMutability": "view",
					"type": "function"
				},
				{
					"inputs": [],
					"name": "gasss3",
					"outputs": [
						{
							"internalType": "uint256",
							"name": "",
							"type": "uint256"
						}
					],
					"stateMutability": "view",
					"type": "function"
				}
			],
			"devdoc": {
				"kind": "dev",
				"methods": {},
				"version": 1
			},
			"evm": {
				"assembly": "    /* \"Solidity \\xea\\xb0\\x95\\xec\\xa2\\x8c \\xeb\\x94\\xb0\\xeb\\x9d\\xbc\\xed\\x95\\x98\\xea\\xb8\\xb0/ex3_Gas_and_Ether.sol\":68:259  contract Lec3 {... */\n  mstore(0x40, 0x80)\n    /* \"Solidity \\xea\\xb0\\x95\\xec\\xa2\\x8c \\xeb\\x94\\xb0\\xeb\\x9d\\xbc\\xed\\x95\\x98\\xea\\xb8\\xb0/ex3_Gas_and_Ether.sol\":163:170  1 ether */\n  0x0de0b6b3a7640000\n    /* \"Solidity \\xea\\xb0\\x95\\xec\\xa2\\x8c \\xeb\\x94\\xb0\\xeb\\x9d\\xbc\\xed\\x95\\x98\\xea\\xb8\\xb0/ex3_Gas_and_Ether.sol\":139:170  uint256 public gasss1 = 1 ether */\n  0x00\n  sstore\n    /* \"Solidity \\xea\\xb0\\x95\\xec\\xa2\\x8c \\xeb\\x94\\xb0\\xeb\\x9d\\xbc\\xed\\x95\\x98\\xea\\xb8\\xb0/ex3_Gas_and_Ether.sol\":203:209  1 gwei */\n  0x3b9aca00\n    /* \"Solidity \\xea\\xb0\\x95\\xec\\xa2\\x8c \\xeb\\x94\\xb0\\xeb\\x9d\\xbc\\xed\\x95\\x98\\xea\\xb8\\xb0/ex3_Gas_and_Ether.sol\":179:209  uint256 public gasss2 = 1 gwei */\n  0x01\n  sstore\n    /* \"Solidity \\xea\\xb0\\x95\\xec\\xa2\\x8c \\xeb\\x94\\xb0\\xeb\\x9d\\xbc\\xed\\x95\\x98\\xea\\xb8\\xb0/ex3_Gas_and_Ether.sol\":242:247  1 wei */\n  0x01\n    /* \"Solidity \\xea\\xb0\\x95\\xec\\xa2\\x8c \\xeb\\x94\\xb0\\xeb\\x9d\\xbc\\xed\\x95\\x98\\xea\\xb8\\xb0/ex3_Gas_and_Ether.sol\":218:247  uint256 public gasss3 = 1 wei */\n  0x02\n  sstore\n    /* \"Solidity \\xea\\xb0\\x95\\xec\\xa2\\x8c \\xeb\\x94\\xb0\\xeb\\x9d\\xbc\\xed\\x95\\x98\\xea\\xb8\\xb0/ex3_Gas_and_Ether.sol\":68:259  contract Lec3 {... */\n  callvalue\n  dup1\n  iszero\n  tag_1\n  jumpi\n  0x00\n  dup1\n  revert\ntag_1:\n  pop\n  dataSize(sub_0)\n  dup1\n  dataOffset(sub_0)\n  0x00\n  codecopy\n  0x00\n  return\nstop\n\nsub_0: assembly {\n        /* \"Solidity \\xea\\xb0\\x95\\xec\\xa2\\x8c \\xeb\\x94\\xb0\\xeb\\x9d\\xbc\\xed\\x95\\x98\\xea\\xb8\\xb0/ex3_Gas_and_Ether.sol\":68:259  contract Lec3 {... */\n      mstore(0x40, 0x80)\n      callvalue\n      dup1\n      iszero\n      tag_1\n      jumpi\n      0x00\n      dup1\n      revert\n    tag_1:\n      pop\n      jumpi(tag_2, lt(calldatasize, 0x04))\n      shr(0xe0, calldataload(0x00))\n      dup1\n      0x5f3c3cbd\n      eq\n      tag_3\n      jumpi\n      dup1\n      0x99464709\n      eq\n      tag_4\n      jumpi\n      dup1\n      0xac7c0a35\n      eq\n      tag_5\n      jumpi\n    tag_2:\n      0x00\n      dup1\n      revert\n        /* \"Solidity \\xea\\xb0\\x95\\xec\\xa2\\x8c \\xeb\\x94\\xb0\\xeb\\x9d\\xbc\\xed\\x95\\x98\\xea\\xb8\\xb0/ex3_Gas_and_Ether.sol\":218:247  uint256 public gasss3 = 1 wei */\n    tag_3:\n      tag_6\n      tag_7\n      jump\t// in\n    tag_6:\n      mload(0x40)\n      tag_8\n      swap2\n      swap1\n      tag_9\n      jump\t// in\n    tag_8:\n      mload(0x40)\n      dup1\n      swap2\n      sub\n      swap1\n      return\n        /* \"Solidity \\xea\\xb0\\x95\\xec\\xa2\\x8c \\xeb\\x94\\xb0\\xeb\\x9d\\xbc\\xed\\x95\\x98\\xea\\xb8\\xb0/ex3_Gas_and_Ether.sol\":139:170  uint256 public gasss1 = 1 ether */\n    tag_4:\n      tag_10\n      tag_11\n      jump\t// in\n    tag_10:\n      mload(0x40)\n      tag_12\n      swap2\n      swap1\n      tag_9\n      jump\t// in\n    tag_12:\n      mload(0x40)\n      dup1\n      swap2\n      sub\n      swap1\n      return\n        /* \"Solidity \\xea\\xb0\\x95\\xec\\xa2\\x8c \\xeb\\x94\\xb0\\xeb\\x9d\\xbc\\xed\\x95\\x98\\xea\\xb8\\xb0/ex3_Gas_and_Ether.sol\":179:209  uint256 public gasss2 = 1 gwei */\n    tag_5:\n      tag_13\n      tag_14\n      jump\t// in\n    tag_13:\n      mload(0x40)\n      tag_15\n      swap2\n      swap1\n      tag_9\n      jump\t// in\n    tag_15:\n      mload(0x40)\n      dup1\n      swap2\n      sub\n      swap1\n      return\n        /* \"Solidity \\xea\\xb0\\x95\\xec\\xa2\\x8c \\xeb\\x94\\xb0\\xeb\\x9d\\xbc\\xed\\x95\\x98\\xea\\xb8\\xb0/ex3_Gas_and_Ether.sol\":218:247  uint256 public gasss3 = 1 wei */\n    tag_7:\n      sload(0x02)\n      dup2\n      jump\t// out\n        /* \"Solidity \\xea\\xb0\\x95\\xec\\xa2\\x8c \\xeb\\x94\\xb0\\xeb\\x9d\\xbc\\xed\\x95\\x98\\xea\\xb8\\xb0/ex3_Gas_and_Ether.sol\":139:170  uint256 public gasss1 = 1 ether */\n    tag_11:\n      sload(0x00)\n      dup2\n      jump\t// out\n        /* \"Solidity \\xea\\xb0\\x95\\xec\\xa2\\x8c \\xeb\\x94\\xb0\\xeb\\x9d\\xbc\\xed\\x95\\x98\\xea\\xb8\\xb0/ex3_Gas_and_Ether.sol\":179:209  uint256 public gasss2 = 1 gwei */\n    tag_14:\n      sload(0x01)\n      dup2\n      jump\t// out\n        /* \"#utility.yul\":7:84   */\n    tag_16:\n        /* \"#utility.yul\":44:51   */\n      0x00\n        /* \"#utility.yul\":73:78   */\n      dup2\n        /* \"#utility.yul\":62:78   */\n      swap1\n      pop\n        /* \"#utility.yul\":7:84   */\n      swap2\n      swap1\n      pop\n      jump\t// out\n        /* \"#utility.yul\":90:208   */\n    tag_17:\n        /* \"#utility.yul\":177:201   */\n      tag_21\n        /* \"#utility.yul\":195:200   */\n      dup2\n        /* \"#utility.yul\":177:201   */\n      tag_16\n      jump\t// in\n    tag_21:\n        /* \"#utility.yul\":172:175   */\n      dup3\n        /* \"#utility.yul\":165:202   */\n      mstore\n        /* \"#utility.yul\":90:208   */\n      pop\n      pop\n      jump\t// out\n        /* \"#utility.yul\":214:436   */\n    tag_9:\n        /* \"#utility.yul\":307:311   */\n      0x00\n        /* \"#utility.yul\":345:347   */\n      0x20\n        /* \"#utility.yul\":334:343   */\n      dup3\n        /* \"#utility.yul\":330:348   */\n      add\n        /* \"#utility.yul\":322:348   */\n      swap1\n      pop\n        /* \"#utility.yul\":358:429   */\n      tag_23\n        /* \"#utility.yul\":426:427   */\n      0x00\n        /* \"#utility.yul\":415:424   */\n      dup4\n        /* \"#utility.yul\":411:428   */\n      add\n        /* \"#utility.yul\":402:408   */\n      dup5\n        /* \"#utility.yul\":358:429   */\n      tag_17\n      jump\t// in\n    tag_23:\n        /* \"#utility.yul\":214:436   */\n      swap3\n      swap2\n      pop\n      pop\n      jump\t// out\n\n    auxdata: 0xa2646970667358221220bbd4f4264d7ae72cb207836ba3b74f45eee61e98ed3c718032bb215aaac5380564736f6c634300080d0033\n}\n",
				"bytecode": {
					"linkReferences": {},
					"object": "6080604052670de0b6b3a7640000600055633b9aca00600155600160025534801561002957600080fd5b50610107806100396000396000f3fe6080604052348015600f57600080fd5b5060043610603c5760003560e01c80635f3c3cbd1460415780639946470914605b578063ac7c0a35146075575b600080fd5b6047608f565b6040516052919060b8565b60405180910390f35b60616095565b604051606c919060b8565b60405180910390f35b607b609b565b6040516086919060b8565b60405180910390f35b60025481565b60005481565b60015481565b6000819050919050565b60b28160a1565b82525050565b600060208201905060cb600083018460ab565b9291505056fea2646970667358221220bbd4f4264d7ae72cb207836ba3b74f45eee61e98ed3c718032bb215aaac5380564736f6c634300080d0033",
					"opcodes": "PUSH1 0x80 PUSH1 0x40 MSTORE PUSH8 0xDE0B6B3A7640000 PUSH1 0x0 SSTORE PUSH4 0x3B9ACA00 PUSH1 0x1 SSTORE PUSH1 0x1 PUSH1 0x2 SSTORE CALLVALUE DUP1 ISZERO PUSH2 0x29 JUMPI PUSH1 0x0 DUP1 REVERT JUMPDEST POP PUSH2 0x107 DUP1 PUSH2 0x39 PUSH1 0x0 CODECOPY PUSH1 0x0 RETURN INVALID PUSH1 0x80 PUSH1 0x40 MSTORE CALLVALUE DUP1 ISZERO PUSH1 0xF JUMPI PUSH1 0x0 DUP1 REVERT JUMPDEST POP PUSH1 0x4 CALLDATASIZE LT PUSH1 0x3C JUMPI PUSH1 0x0 CALLDATALOAD PUSH1 0xE0 SHR DUP1 PUSH4 0x5F3C3CBD EQ PUSH1 0x41 JUMPI DUP1 PUSH4 0x99464709 EQ PUSH1 0x5B JUMPI DUP1 PUSH4 0xAC7C0A35 EQ PUSH1 0x75 JUMPI JUMPDEST PUSH1 0x0 DUP1 REVERT JUMPDEST PUSH1 0x47 PUSH1 0x8F JUMP JUMPDEST PUSH1 0x40 MLOAD PUSH1 0x52 SWAP2 SWAP1 PUSH1 0xB8 JUMP JUMPDEST PUSH1 0x40 MLOAD DUP1 SWAP2 SUB SWAP1 RETURN JUMPDEST PUSH1 0x61 PUSH1 0x95 JUMP JUMPDEST PUSH1 0x40 MLOAD PUSH1 0x6C SWAP2 SWAP1 PUSH1 0xB8 JUMP JUMPDEST PUSH1 0x40 MLOAD DUP1 SWAP2 SUB SWAP1 RETURN JUMPDEST PUSH1 0x7B PUSH1 0x9B JUMP JUMPDEST PUSH1 0x40 MLOAD PUSH1 0x86 SWAP2 SWAP1 PUSH1 0xB8 JUMP JUMPDEST PUSH1 0x40 MLOAD DUP1 SWAP2 SUB SWAP1 RETURN JUMPDEST PUSH1 0x2 SLOAD DUP2 JUMP JUMPDEST PUSH1 0x0 SLOAD DUP2 JUMP JUMPDEST PUSH1 0x1 SLOAD DUP2 JUMP JUMPDEST PUSH1 0x0 DUP2 SWAP1 POP SWAP2 SWAP1 POP JUMP JUMPDEST PUSH1 0xB2 DUP2 PUSH1 0xA1 JUMP JUMPDEST DUP3 MSTORE POP POP JUMP JUMPDEST PUSH1 0x0 PUSH1 0x20 DUP3 ADD SWAP1 POP PUSH1 0xCB PUSH1 0x0 DUP4 ADD DUP5 PUSH1 0xAB JUMP JUMPDEST SWAP3 SWAP2 POP POP JUMP INVALID LOG2 PUSH5 0x6970667358 0x22 SLT KECCAK256 0xBB 0xD4 DELEGATECALL 0x26 0x4D PUSH27 0xE72CB207836BA3B74F45EEE61E98ED3C718032BB215AAAC5380564 PUSH20 0x6F6C634300080D00330000000000000000000000 "
				},
				"gasEstimates": {
					"creation": {
						"codeDepositCost": "52600",
						"executionCost": "66423",
						"totalCost": "119023"
					},
					"external": {
						"gasss1()": "2429",
						"gasss2()": "2451",
						"gasss3()": "2407"
					}
				},
				"methodIdentifiers": {
					"gasss1()": "99464709",
					"gasss2()": "ac7c0a35",
					"gasss3()": "5f3c3cbd"
				}
			},
			"storageLayout": {
				"storage": [
					{
						"astId": 4,
						"contract": "Solidity 강좌 따라하기/ex3_Gas_and_Ether.sol:Lec3",
						"label": "gasss1",
						"offset": 0,
						"slot": "0",
						"type": "t_uint256"
					},
					{
						"astId": 7,
						"contract": "Solidity 강좌 따라하기/ex3_Gas_and_Ether.sol:Lec3",
						"label": "gasss2",
						"offset": 0,
						"slot": "1",
						"type": "t_uint256"
					},
					{
						"astId": 10,
						"contract": "Solidity 강좌 따라하기/ex3_Gas_and_Ether.sol:Lec3",
						"label": "gasss3",
						"offset": 0,
						"slot": "2",
						"type": "t_uint256"
					}
				],
				"types": {
					"t_uint256": {
						"encoding": "inplace",
						"label": "uint256",
						"numberOfBytes": "32"
					}
				}
			},
			"userdoc": {
				"kind": "user",
				"methods": {},
				"version": 1
			}
		}
	}
}